{
  "_format": "hh-sol-artifact-1",
  "contractName": "EduchainQuiz",
  "sourceName": "contracts/EduchainQuiz.sol",
  "abi": [
    {
      "inputs": [
        {
          "internalType": "address",
          "name": "_questProviderAddress",
          "type": "address"
        }
      ],
      "stateMutability": "nonpayable",
      "type": "constructor"
    },
    {
      "inputs": [
        {
          "internalType": "uint256",
          "name": "_questId",
          "type": "uint256"
        }
      ],
      "name": "getQuestProviderAddress",
      "outputs": [
        {
          "internalType": "address",
          "name": "",
          "type": "address"
        }
      ],
      "stateMutability": "view",
      "type": "function"
    },
    {
      "inputs": [
        {
          "internalType": "uint256",
          "name": "_questId",
          "type": "uint256"
        }
      ],
      "name": "getQuestStats",
      "outputs": [
        {
          "internalType": "bool",
          "name": "",
          "type": "bool"
        },
        {
          "internalType": "bool",
          "name": "",
          "type": "bool"
        }
      ],
      "stateMutability": "view",
      "type": "function"
    },
    {
      "inputs": [
        {
          "internalType": "address",
          "name": "_user",
          "type": "address"
        }
      ],
      "name": "getUserInfo",
      "outputs": [
        {
          "internalType": "uint256",
          "name": "",
          "type": "uint256"
        },
        {
          "internalType": "bool",
          "name": "",
          "type": "bool"
        },
        {
          "internalType": "bool",
          "name": "",
          "type": "bool"
        }
      ],
      "stateMutability": "view",
      "type": "function"
    },
    {
      "inputs": [
        {
          "internalType": "uint256",
          "name": "_questId",
          "type": "uint256"
        }
      ],
      "name": "hasLikedQuest",
      "outputs": [
        {
          "internalType": "bool",
          "name": "",
          "type": "bool"
        }
      ],
      "stateMutability": "view",
      "type": "function"
    },
    {
      "inputs": [],
      "name": "questProvider",
      "outputs": [
        {
          "internalType": "contract QuestProvider",
          "name": "",
          "type": "address"
        }
      ],
      "stateMutability": "view",
      "type": "function"
    },
    {
      "inputs": [
        {
          "internalType": "uint256",
          "name": "_questId",
          "type": "uint256"
        },
        {
          "internalType": "uint256",
          "name": "_correctAnswers",
          "type": "uint256"
        },
        {
          "internalType": "bool",
          "name": "_hasCompletedQuiz",
          "type": "bool"
        },
        {
          "internalType": "bool",
          "name": "_like",
          "type": "bool"
        }
      ],
      "name": "submitQuizResult",
      "outputs": [],
      "stateMutability": "nonpayable",
      "type": "function"
    },
    {
      "inputs": [
        {
          "internalType": "address",
          "name": "",
          "type": "address"
        }
      ],
      "name": "users",
      "outputs": [
        {
          "internalType": "uint256",
          "name": "correctAnswers",
          "type": "uint256"
        },
        {
          "internalType": "bool",
          "name": "hasCompletedQuiz",
          "type": "bool"
        },
        {
          "internalType": "bool",
          "name": "hasLiked",
          "type": "bool"
        }
      ],
      "stateMutability": "view",
      "type": "function"
    }
  ],
  "bytecode": "0x608060405234801561001057600080fd5b50604051610bf6380380610bf6833981810160405281019061003291906100db565b806000806101000a81548173ffffffffffffffffffffffffffffffffffffffff021916908373ffffffffffffffffffffffffffffffffffffffff16021790555050610108565b600080fd5b600073ffffffffffffffffffffffffffffffffffffffff82169050919050565b60006100a88261007d565b9050919050565b6100b88161009d565b81146100c357600080fd5b50565b6000815190506100d5816100af565b92915050565b6000602082840312156100f1576100f0610078565b5b60006100ff848285016100c6565b91505092915050565b610adf806101176000396000f3fe608060405234801561001057600080fd5b506004361061007d5760003560e01c8063b26f45461161005b578063b26f454614610104578063ccee4dce14610134578063dc307c6714610150578063f338faca146101815761007d565b80632c4d2fff146100825780636386c1c7146100a0578063a87430ba146100d2575b600080fd5b61008a6101b1565b6040516100979190610775565b60405180910390f35b6100ba60048036038101906100b591906107d3565b6101d5565b6040516100c993929190610834565b60405180910390f35b6100ec60048036038101906100e791906107d3565b610284565b6040516100fb93929190610834565b60405180910390f35b61011e60048036038101906101199190610897565b6102c8565b60405161012b91906108d3565b60405180910390f35b61014e6004803603810190610149919061091a565b61036e565b005b61016a60048036038101906101659190610897565b6104fe565b604051610178929190610981565b60405180910390f35b61019b60048036038101906101969190610897565b610650565b6040516101a891906109aa565b60405180910390f35b60008054906101000a900473ffffffffffffffffffffffffffffffffffffffff1681565b600080600080600160008673ffffffffffffffffffffffffffffffffffffffff1673ffffffffffffffffffffffffffffffffffffffff168152602001908152602001600020604051806060016040529081600082015481526020016001820160009054906101000a900460ff161515151581526020016001820160019054906101000a900460ff1615151515815250509050806000015181602001518260400151935093509350509193909250565b60016020528060005260406000206000915090508060000154908060010160009054906101000a900460ff16908060010160019054906101000a900460ff16905083565b60008060009054906101000a900473ffffffffffffffffffffffffffffffffffffffff1673ffffffffffffffffffffffffffffffffffffffff1663397b154833846040518363ffffffff1660e01b81526004016103269291906109c5565b602060405180830381865afa158015610343573d6000803e3d6000fd5b505050506040513d601f19601f820116820180604052508101906103679190610a03565b9050919050565b82600160003373ffffffffffffffffffffffffffffffffffffffff1673ffffffffffffffffffffffffffffffffffffffff1681526020019081526020016000206000018190555081600160003373ffffffffffffffffffffffffffffffffffffffff1673ffffffffffffffffffffffffffffffffffffffff16815260200190815260200160002060010160006101000a81548160ff02191690831515021790555080600160003373ffffffffffffffffffffffffffffffffffffffff1673ffffffffffffffffffffffffffffffffffffffff16815260200190815260200160002060010160016101000a81548160ff02191690831515021790555060008054906101000a900473ffffffffffffffffffffffffffffffffffffffff1673ffffffffffffffffffffffffffffffffffffffff166354128ec53386846040518463ffffffff1660e01b81526004016104c693929190610a30565b600060405180830381600087803b1580156104e057600080fd5b505af11580156104f4573d6000803e3d6000fd5b5050505050505050565b60008060008060009054906101000a900473ffffffffffffffffffffffffffffffffffffffff1673ffffffffffffffffffffffffffffffffffffffff166365a4e63e33866040518363ffffffff1660e01b815260040161055f9291906109c5565b602060405180830381865afa15801561057c573d6000803e3d6000fd5b505050506040513d601f19601f820116820180604052508101906105a09190610a7c565b905060008060009054906101000a900473ffffffffffffffffffffffffffffffffffffffff1673ffffffffffffffffffffffffffffffffffffffff1663df757a0933876040518363ffffffff1660e01b81526004016106009291906109c5565b602060405180830381865afa15801561061d573d6000803e3d6000fd5b505050506040513d601f19601f820116820180604052508101906106419190610a7c565b90508181935093505050915091565b60008060009054906101000a900473ffffffffffffffffffffffffffffffffffffffff1673ffffffffffffffffffffffffffffffffffffffff1663df757a0933846040518363ffffffff1660e01b81526004016106ae9291906109c5565b602060405180830381865afa1580156106cb573d6000803e3d6000fd5b505050506040513d601f19601f820116820180604052508101906106ef9190610a7c565b9050919050565b600073ffffffffffffffffffffffffffffffffffffffff82169050919050565b6000819050919050565b600061073b610736610731846106f6565b610716565b6106f6565b9050919050565b600061074d82610720565b9050919050565b600061075f82610742565b9050919050565b61076f81610754565b82525050565b600060208201905061078a6000830184610766565b92915050565b600080fd5b60006107a0826106f6565b9050919050565b6107b081610795565b81146107bb57600080fd5b50565b6000813590506107cd816107a7565b92915050565b6000602082840312156107e9576107e8610790565b5b60006107f7848285016107be565b91505092915050565b6000819050919050565b61081381610800565b82525050565b60008115159050919050565b61082e81610819565b82525050565b6000606082019050610849600083018661080a565b6108566020830185610825565b6108636040830184610825565b949350505050565b61087481610800565b811461087f57600080fd5b50565b6000813590506108918161086b565b92915050565b6000602082840312156108ad576108ac610790565b5b60006108bb84828501610882565b91505092915050565b6108cd81610795565b82525050565b60006020820190506108e860008301846108c4565b92915050565b6108f781610819565b811461090257600080fd5b50565b600081359050610914816108ee565b92915050565b6000806000806080858703121561093457610933610790565b5b600061094287828801610882565b945050602061095387828801610882565b935050604061096487828801610905565b925050606061097587828801610905565b91505092959194509250565b60006040820190506109966000830185610825565b6109a36020830184610825565b9392505050565b60006020820190506109bf6000830184610825565b92915050565b60006040820190506109da60008301856108c4565b6109e7602083018461080a565b9392505050565b6000815190506109fd816107a7565b92915050565b600060208284031215610a1957610a18610790565b5b6000610a27848285016109ee565b91505092915050565b6000606082019050610a4560008301866108c4565b610a52602083018561080a565b610a5f6040830184610825565b949350505050565b600081519050610a76816108ee565b92915050565b600060208284031215610a9257610a91610790565b5b6000610aa084828501610a67565b9150509291505056fea26469706673582212207a6f80762beada0b59af4f783abb29e306ea3f434eae4412b079fad2926f749e64736f6c63430008130033",
  "linkReferences": {},
  "deployedLinkReferences": {}
}