{
  "_format": "hh-sol-artifact-1",
  "contractName": "EduchainQuiz",
  "sourceName": "contracts/EduchainQuiz.sol",
  "abi": [
    {
      "inputs": [
        {
          "internalType": "address",
          "name": "_user",
          "type": "address"
        }
      ],
      "name": "getUserInfo",
      "outputs": [
        {
          "internalType": "uint256",
          "name": "",
          "type": "uint256"
        },
        {
          "internalType": "bool",
          "name": "",
          "type": "bool"
        },
        {
          "internalType": "uint256",
          "name": "",
          "type": "uint256"
        }
      ],
      "stateMutability": "view",
      "type": "function"
    },
    {
      "inputs": [],
      "name": "like",
      "outputs": [],
      "stateMutability": "nonpayable",
      "type": "function"
    },
    {
      "inputs": [
        {
          "internalType": "uint256",
          "name": "_correctAnswers",
          "type": "uint256"
        },
        {
          "internalType": "bool",
          "name": "_hasCompletedQuiz",
          "type": "bool"
        }
      ],
      "name": "submitQuizResult",
      "outputs": [],
      "stateMutability": "nonpayable",
      "type": "function"
    },
    {
      "inputs": [
        {
          "internalType": "address",
          "name": "",
          "type": "address"
        }
      ],
      "name": "users",
      "outputs": [
        {
          "internalType": "uint256",
          "name": "correctAnswers",
          "type": "uint256"
        },
        {
          "internalType": "bool",
          "name": "hasCompletedQuiz",
          "type": "bool"
        },
        {
          "internalType": "uint256",
          "name": "likes",
          "type": "uint256"
        }
      ],
      "stateMutability": "view",
      "type": "function"
    }
  ],
  "bytecode": "0x608060405234801561001057600080fd5b506104d9806100206000396000f3fe608060405234801561001057600080fd5b506004361061004c5760003560e01c80636386c1c71461005157806390eb661014610083578063a523b88a1461009f578063a87430ba146100a9575b600080fd5b61006b60048036038101906100669190610310565b6100db565b60405161007a93929190610371565b60405180910390f35b61009d60048036038101906100989190610400565b610178565b005b6100a761021b565b005b6100c360048036038101906100be9190610310565b610276565b6040516100d293929190610371565b60405180910390f35b6000806000806000808673ffffffffffffffffffffffffffffffffffffffff1673ffffffffffffffffffffffffffffffffffffffff168152602001908152602001600020604051806060016040529081600082015481526020016001820160009054906101000a900460ff161515151581526020016002820154815250509050806000015181602001518260400151935093509350509193909250565b816000803373ffffffffffffffffffffffffffffffffffffffff1673ffffffffffffffffffffffffffffffffffffffff16815260200190815260200160002060000181905550806000803373ffffffffffffffffffffffffffffffffffffffff1673ffffffffffffffffffffffffffffffffffffffff16815260200190815260200160002060010160006101000a81548160ff0219169083151502179055505050565b60016000803373ffffffffffffffffffffffffffffffffffffffff1673ffffffffffffffffffffffffffffffffffffffff168152602001908152602001600020600201600082825461026d919061046f565b92505081905550565b60006020528060005260406000206000915090508060000154908060010160009054906101000a900460ff16908060020154905083565b600080fd5b600073ffffffffffffffffffffffffffffffffffffffff82169050919050565b60006102dd826102b2565b9050919050565b6102ed816102d2565b81146102f857600080fd5b50565b60008135905061030a816102e4565b92915050565b600060208284031215610326576103256102ad565b5b6000610334848285016102fb565b91505092915050565b6000819050919050565b6103508161033d565b82525050565b60008115159050919050565b61036b81610356565b82525050565b60006060820190506103866000830186610347565b6103936020830185610362565b6103a06040830184610347565b949350505050565b6103b18161033d565b81146103bc57600080fd5b50565b6000813590506103ce816103a8565b92915050565b6103dd81610356565b81146103e857600080fd5b50565b6000813590506103fa816103d4565b92915050565b60008060408385031215610417576104166102ad565b5b6000610425858286016103bf565b9250506020610436858286016103eb565b9150509250929050565b7f4e487b7100000000000000000000000000000000000000000000000000000000600052601160045260246000fd5b600061047a8261033d565b91506104858361033d565b925082820190508082111561049d5761049c610440565b5b9291505056fea264697066735822122032cbe9c79d04d17e7b6c7d74c269be38efbe14f4433fb2327680e1eac4442f9a64736f6c63430008180033",
  "linkReferences": {},
  "deployedLinkReferences": {}
}