{
  "_format": "hh-sol-artifact-1",
  "contractName": "EduchainQuiz",
  "sourceName": "contracts/EduchainQuiz.sol",
  "abi": [
    {
      "inputs": [],
      "stateMutability": "nonpayable",
      "type": "constructor"
    },
    {
      "inputs": [
        {
          "internalType": "uint256",
          "name": "_questId",
          "type": "uint256"
        }
      ],
      "name": "getQuestProviderAddress",
      "outputs": [
        {
          "internalType": "address",
          "name": "",
          "type": "address"
        }
      ],
      "stateMutability": "view",
      "type": "function"
    },
    {
      "inputs": [
        {
          "internalType": "uint256",
          "name": "_questId",
          "type": "uint256"
        }
      ],
      "name": "getQuestStats",
      "outputs": [
        {
          "internalType": "bool",
          "name": "",
          "type": "bool"
        },
        {
          "internalType": "bool",
          "name": "",
          "type": "bool"
        }
      ],
      "stateMutability": "view",
      "type": "function"
    },
    {
      "inputs": [
        {
          "internalType": "address",
          "name": "_user",
          "type": "address"
        }
      ],
      "name": "getUserInfo",
      "outputs": [
        {
          "internalType": "uint256",
          "name": "",
          "type": "uint256"
        },
        {
          "internalType": "bool",
          "name": "",
          "type": "bool"
        },
        {
          "internalType": "bool",
          "name": "",
          "type": "bool"
        }
      ],
      "stateMutability": "view",
      "type": "function"
    },
    {
      "inputs": [
        {
          "internalType": "uint256",
          "name": "_questId",
          "type": "uint256"
        }
      ],
      "name": "hasLikedQuest",
      "outputs": [
        {
          "internalType": "bool",
          "name": "",
          "type": "bool"
        }
      ],
      "stateMutability": "view",
      "type": "function"
    },
    {
      "inputs": [],
      "name": "questProvider",
      "outputs": [
        {
          "internalType": "contract QuestProvider",
          "name": "",
          "type": "address"
        }
      ],
      "stateMutability": "view",
      "type": "function"
    },
    {
      "inputs": [
        {
          "internalType": "uint256",
          "name": "_questId",
          "type": "uint256"
        },
        {
          "internalType": "uint256",
          "name": "_correctAnswers",
          "type": "uint256"
        },
        {
          "internalType": "bool",
          "name": "_hasCompletedQuiz",
          "type": "bool"
        },
        {
          "internalType": "bool",
          "name": "_like",
          "type": "bool"
        }
      ],
      "name": "submitQuizResult",
      "outputs": [],
      "stateMutability": "nonpayable",
      "type": "function"
    },
    {
      "inputs": [
        {
          "internalType": "address",
          "name": "",
          "type": "address"
        }
      ],
      "name": "users",
      "outputs": [
        {
          "internalType": "uint256",
          "name": "correctAnswers",
          "type": "uint256"
        },
        {
          "internalType": "bool",
          "name": "hasCompletedQuiz",
          "type": "bool"
        },
        {
          "internalType": "bool",
          "name": "hasLiked",
          "type": "bool"
        }
      ],
      "stateMutability": "view",
      "type": "function"
    }
  ],
  "bytecode": "0x608060405234801561001057600080fd5b5060405161001d9061007e565b604051809103906000f080158015610039573d6000803e3d6000fd5b506000806101000a81548173ffffffffffffffffffffffffffffffffffffffff021916908373ffffffffffffffffffffffffffffffffffffffff16021790555061008b565b6109af80610b7983390190565b610adf8061009a6000396000f3fe608060405234801561001057600080fd5b506004361061007d5760003560e01c8063b26f45461161005b578063b26f454614610104578063ccee4dce14610134578063dc307c6714610150578063f338faca146101815761007d565b80632c4d2fff146100825780636386c1c7146100a0578063a87430ba146100d2575b600080fd5b61008a6101b1565b6040516100979190610775565b60405180910390f35b6100ba60048036038101906100b591906107d3565b6101d5565b6040516100c993929190610834565b60405180910390f35b6100ec60048036038101906100e791906107d3565b610284565b6040516100fb93929190610834565b60405180910390f35b61011e60048036038101906101199190610897565b6102c8565b60405161012b91906108d3565b60405180910390f35b61014e6004803603810190610149919061091a565b61036e565b005b61016a60048036038101906101659190610897565b6104fe565b604051610178929190610981565b60405180910390f35b61019b60048036038101906101969190610897565b610650565b6040516101a891906109aa565b60405180910390f35b60008054906101000a900473ffffffffffffffffffffffffffffffffffffffff1681565b600080600080600160008673ffffffffffffffffffffffffffffffffffffffff1673ffffffffffffffffffffffffffffffffffffffff168152602001908152602001600020604051806060016040529081600082015481526020016001820160009054906101000a900460ff161515151581526020016001820160019054906101000a900460ff1615151515815250509050806000015181602001518260400151935093509350509193909250565b60016020528060005260406000206000915090508060000154908060010160009054906101000a900460ff16908060010160019054906101000a900460ff16905083565b60008060009054906101000a900473ffffffffffffffffffffffffffffffffffffffff1673ffffffffffffffffffffffffffffffffffffffff1663397b154833846040518363ffffffff1660e01b81526004016103269291906109c5565b602060405180830381865afa158015610343573d6000803e3d6000fd5b505050506040513d601f19601f820116820180604052508101906103679190610a03565b9050919050565b82600160003373ffffffffffffffffffffffffffffffffffffffff1673ffffffffffffffffffffffffffffffffffffffff1681526020019081526020016000206000018190555081600160003373ffffffffffffffffffffffffffffffffffffffff1673ffffffffffffffffffffffffffffffffffffffff16815260200190815260200160002060010160006101000a81548160ff02191690831515021790555080600160003373ffffffffffffffffffffffffffffffffffffffff1673ffffffffffffffffffffffffffffffffffffffff16815260200190815260200160002060010160016101000a81548160ff02191690831515021790555060008054906101000a900473ffffffffffffffffffffffffffffffffffffffff1673ffffffffffffffffffffffffffffffffffffffff166354128ec53386846040518463ffffffff1660e01b81526004016104c693929190610a30565b600060405180830381600087803b1580156104e057600080fd5b505af11580156104f4573d6000803e3d6000fd5b5050505050505050565b60008060008060009054906101000a900473ffffffffffffffffffffffffffffffffffffffff1673ffffffffffffffffffffffffffffffffffffffff166365a4e63e33866040518363ffffffff1660e01b815260040161055f9291906109c5565b602060405180830381865afa15801561057c573d6000803e3d6000fd5b505050506040513d601f19601f820116820180604052508101906105a09190610a7c565b905060008060009054906101000a900473ffffffffffffffffffffffffffffffffffffffff1673ffffffffffffffffffffffffffffffffffffffff1663df757a0933876040518363ffffffff1660e01b81526004016106009291906109c5565b602060405180830381865afa15801561061d573d6000803e3d6000fd5b505050506040513d601f19601f820116820180604052508101906106419190610a7c565b90508181935093505050915091565b60008060009054906101000a900473ffffffffffffffffffffffffffffffffffffffff1673ffffffffffffffffffffffffffffffffffffffff1663df757a0933846040518363ffffffff1660e01b81526004016106ae9291906109c5565b602060405180830381865afa1580156106cb573d6000803e3d6000fd5b505050506040513d601f19601f820116820180604052508101906106ef9190610a7c565b9050919050565b600073ffffffffffffffffffffffffffffffffffffffff82169050919050565b6000819050919050565b600061073b610736610731846106f6565b610716565b6106f6565b9050919050565b600061074d82610720565b9050919050565b600061075f82610742565b9050919050565b61076f81610754565b82525050565b600060208201905061078a6000830184610766565b92915050565b600080fd5b60006107a0826106f6565b9050919050565b6107b081610795565b81146107bb57600080fd5b50565b6000813590506107cd816107a7565b92915050565b6000602082840312156107e9576107e8610790565b5b60006107f7848285016107be565b91505092915050565b6000819050919050565b61081381610800565b82525050565b60008115159050919050565b61082e81610819565b82525050565b6000606082019050610849600083018661080a565b6108566020830185610825565b6108636040830184610825565b949350505050565b61087481610800565b811461087f57600080fd5b50565b6000813590506108918161086b565b92915050565b6000602082840312156108ad576108ac610790565b5b60006108bb84828501610882565b91505092915050565b6108cd81610795565b82525050565b60006020820190506108e860008301846108c4565b92915050565b6108f781610819565b811461090257600080fd5b50565b600081359050610914816108ee565b92915050565b6000806000806080858703121561093457610933610790565b5b600061094287828801610882565b945050602061095387828801610882565b935050604061096487828801610905565b925050606061097587828801610905565b91505092959194509250565b60006040820190506109966000830185610825565b6109a36020830184610825565b9392505050565b60006020820190506109bf6000830184610825565b92915050565b60006040820190506109da60008301856108c4565b6109e7602083018461080a565b9392505050565b6000815190506109fd816107a7565b92915050565b600060208284031215610a1957610a18610790565b5b6000610a27848285016109ee565b91505092915050565b6000606082019050610a4560008301866108c4565b610a52602083018561080a565b610a5f6040830184610825565b949350505050565b600081519050610a76816108ee565b92915050565b600060208284031215610a9257610a91610790565b5b6000610aa084828501610a67565b9150509291505056fea26469706673582212205294255cefeb55fc94e5c7ca2535273283b168d507fab77f1b16d8be34feba0c64736f6c63430008130033608060405234801561001057600080fd5b5061098f806100206000396000f3fe608060405234801561001057600080fd5b506004361061007d5760003560e01c806365a4e63e1161005b57806365a4e63e1461010057806376e8424f14610130578063b8ed668b14610161578063df757a09146101935761007d565b8063397b1548146100825780633ad4295e146100b257806354128ec5146100e4575b600080fd5b61009c60048036038101906100979190610754565b6101c3565b6040516100a991906107a3565b60405180910390f35b6100cc60048036038101906100c791906107be565b610240565b6040516100db93929190610828565b60405180910390f35b6100fe60048036038101906100f9919061088b565b610343565b005b61011a60048036038101906101159190610754565b610473565b60405161012791906108de565b60405180910390f35b61014a60048036038101906101459190610754565b6104dd565b6040516101589291906108f9565b60405180910390f35b61017b60048036038101906101769190610754565b6105e0565b60405161018a93929190610922565b60405180910390f35b6101ad60048036038101906101a89190610754565b610651565b6040516101ba91906108de565b60405180910390f35b60008060008473ffffffffffffffffffffffffffffffffffffffff1673ffffffffffffffffffffffffffffffffffffffff168152602001908152602001600020600083815260200190815260200160002060000160009054906101000a900473ffffffffffffffffffffffffffffffffffffffff16905092915050565b6000806000806000808673ffffffffffffffffffffffffffffffffffffffff1673ffffffffffffffffffffffffffffffffffffffff16815260200190815260200160002060008781526020019081526020016000206040518060600160405290816000820160009054906101000a900473ffffffffffffffffffffffffffffffffffffffff1673ffffffffffffffffffffffffffffffffffffffff1673ffffffffffffffffffffffffffffffffffffffff1681526020016000820160149054906101000a900460ff161515151581526020016000820160159054906101000a900460ff161515151581525050905084868260200151935093509350509250925092565b60008060008573ffffffffffffffffffffffffffffffffffffffff1673ffffffffffffffffffffffffffffffffffffffff16815260200190815260200160002060008481526020019081526020016000209050338160000160006101000a81548173ffffffffffffffffffffffffffffffffffffffff021916908373ffffffffffffffffffffffffffffffffffffffff16021790555060018160000160146101000a81548160ff021916908315150217905550818160000160156101000a81548160ff021916908315150217905550828473ffffffffffffffffffffffffffffffffffffffff163373ffffffffffffffffffffffffffffffffffffffff167f28152d697b92da857173a678b1f5029dd2c7102759b8bb3bcb69be458b2c77a160405160405180910390a450505050565b60008060008473ffffffffffffffffffffffffffffffffffffffff1673ffffffffffffffffffffffffffffffffffffffff168152602001908152602001600020600083815260200190815260200160002060000160149054906101000a900460ff16905092915050565b60008060008060008673ffffffffffffffffffffffffffffffffffffffff1673ffffffffffffffffffffffffffffffffffffffff16815260200190815260200160002060008581526020019081526020016000206040518060600160405290816000820160009054906101000a900473ffffffffffffffffffffffffffffffffffffffff1673ffffffffffffffffffffffffffffffffffffffff1673ffffffffffffffffffffffffffffffffffffffff1681526020016000820160149054906101000a900460ff161515151581526020016000820160159054906101000a900460ff16151515158152505090508060200151816040015192509250509250929050565b6000602052816000526040600020602052806000526040600020600091509150508060000160009054906101000a900473ffffffffffffffffffffffffffffffffffffffff16908060000160149054906101000a900460ff16908060000160159054906101000a900460ff16905083565b60008060008473ffffffffffffffffffffffffffffffffffffffff1673ffffffffffffffffffffffffffffffffffffffff168152602001908152602001600020600083815260200190815260200160002060000160159054906101000a900460ff16905092915050565b600080fd5b600073ffffffffffffffffffffffffffffffffffffffff82169050919050565b60006106eb826106c0565b9050919050565b6106fb816106e0565b811461070657600080fd5b50565b600081359050610718816106f2565b92915050565b6000819050919050565b6107318161071e565b811461073c57600080fd5b50565b60008135905061074e81610728565b92915050565b6000806040838503121561076b5761076a6106bb565b5b600061077985828601610709565b925050602061078a8582860161073f565b9150509250929050565b61079d816106e0565b82525050565b60006020820190506107b86000830184610794565b92915050565b600080604083850312156107d5576107d46106bb565b5b60006107e38582860161073f565b92505060206107f485828601610709565b9150509250929050565b6108078161071e565b82525050565b60008115159050919050565b6108228161080d565b82525050565b600060608201905061083d6000830186610794565b61084a60208301856107fe565b6108576040830184610819565b949350505050565b6108688161080d565b811461087357600080fd5b50565b6000813590506108858161085f565b92915050565b6000806000606084860312156108a4576108a36106bb565b5b60006108b286828701610709565b93505060206108c38682870161073f565b92505060406108d486828701610876565b9150509250925092565b60006020820190506108f36000830184610819565b92915050565b600060408201905061090e6000830185610819565b61091b6020830184610819565b9392505050565b60006060820190506109376000830186610794565b6109446020830185610819565b6109516040830184610819565b94935050505056fea2646970667358221220e6052d56ec238eb7a20e760b7cb8dbd758e56497f70bfa8d35f8ef3071b4863f64736f6c63430008130033",
  "linkReferences": {},
  "deployedLinkReferences": {}
}