{
  "_format": "hh-sol-artifact-1",
  "contractName": "QuestTracker",
  "sourceName": "contracts/QuestTracker.sol",
  "abi": [
    {
      "inputs": [
        {
          "internalType": "address",
          "name": "_questContractAddress",
          "type": "address"
        }
      ],
      "stateMutability": "nonpayable",
      "type": "constructor"
    },
    {
      "inputs": [],
      "name": "getStats",
      "outputs": [
        {
          "internalType": "uint256",
          "name": "",
          "type": "uint256"
        },
        {
          "internalType": "uint256",
          "name": "",
          "type": "uint256"
        }
      ],
      "stateMutability": "view",
      "type": "function"
    },
    {
      "inputs": [
        {
          "internalType": "address",
          "name": "",
          "type": "address"
        },
        {
          "internalType": "uint256",
          "name": "",
          "type": "uint256"
        }
      ],
      "name": "hasCountedLike",
      "outputs": [
        {
          "internalType": "bool",
          "name": "",
          "type": "bool"
        }
      ],
      "stateMutability": "view",
      "type": "function"
    },
    {
      "inputs": [
        {
          "internalType": "address",
          "name": "",
          "type": "address"
        },
        {
          "internalType": "uint256",
          "name": "",
          "type": "uint256"
        }
      ],
      "name": "hasCountedView",
      "outputs": [
        {
          "internalType": "bool",
          "name": "",
          "type": "bool"
        }
      ],
      "stateMutability": "view",
      "type": "function"
    },
    {
      "inputs": [],
      "name": "questContract",
      "outputs": [
        {
          "internalType": "contract QuestProvider",
          "name": "",
          "type": "address"
        }
      ],
      "stateMutability": "view",
      "type": "function"
    },
    {
      "inputs": [],
      "name": "totalLikes",
      "outputs": [
        {
          "internalType": "uint256",
          "name": "",
          "type": "uint256"
        }
      ],
      "stateMutability": "view",
      "type": "function"
    },
    {
      "inputs": [],
      "name": "totalViews",
      "outputs": [
        {
          "internalType": "uint256",
          "name": "",
          "type": "uint256"
        }
      ],
      "stateMutability": "view",
      "type": "function"
    },
    {
      "inputs": [
        {
          "internalType": "uint256",
          "name": "_questId",
          "type": "uint256"
        }
      ],
      "name": "updateStats",
      "outputs": [],
      "stateMutability": "nonpayable",
      "type": "function"
    }
  ],
  "bytecode": "0x608060405234801561001057600080fd5b506040516109f03803806109f0833981810160405281019061003291906100db565b806000806101000a81548173ffffffffffffffffffffffffffffffffffffffff021916908373ffffffffffffffffffffffffffffffffffffffff16021790555050610108565b600080fd5b600073ffffffffffffffffffffffffffffffffffffffff82169050919050565b60006100a88261007d565b9050919050565b6100b88161009d565b81146100c357600080fd5b50565b6000815190506100d5816100af565b92915050565b6000602082840312156100f1576100f0610078565b5b60006100ff848285016100c6565b91505092915050565b6108d9806101176000396000f3fe608060405234801561001057600080fd5b506004361061007d5760003560e01c8063a136362e1161005b578063a136362e146100ee578063aa6120d51461011e578063aead592e1461013a578063c59d4847146101585761007d565b80630f90d90014610082578063217539b8146100a05780636a6940cc146100d0575b600080fd5b61008a610177565b6040516100979190610556565b60405180910390f35b6100ba60048036038101906100b59190610600565b61017d565b6040516100c7919061065b565b60405180910390f35b6100d86101ac565b6040516100e591906106d5565b60405180910390f35b61010860048036038101906101039190610600565b6101d0565b604051610115919061065b565b60405180910390f35b610138600480360381019061013391906106f0565b6101ff565b005b610142610526565b60405161014f9190610556565b60405180910390f35b61016061052c565b60405161016e92919061071d565b60405180910390f35b60025481565b60046020528160005260406000206020528060005260406000206000915091509054906101000a900460ff1681565b60008054906101000a900473ffffffffffffffffffffffffffffffffffffffff1681565b60036020528160005260406000206020528060005260406000206000915091509054906101000a900460ff1681565b60008060009054906101000a900473ffffffffffffffffffffffffffffffffffffffff1673ffffffffffffffffffffffffffffffffffffffff1663397b154833846040518363ffffffff1660e01b815260040161025d929190610755565b602060405180830381865afa15801561027a573d6000803e3d6000fd5b505050506040513d601f19601f8201168201806040525081019061029e9190610793565b905060008060008054906101000a900473ffffffffffffffffffffffffffffffffffffffff1673ffffffffffffffffffffffffffffffffffffffff166376e8424f33866040518363ffffffff1660e01b81526004016102fe929190610755565b6040805180830381865afa15801561031a573d6000803e3d6000fd5b505050506040513d601f19601f8201168201806040525081019061033e91906107ec565b915091508180156103aa5750600360008473ffffffffffffffffffffffffffffffffffffffff1673ffffffffffffffffffffffffffffffffffffffff168152602001908152602001600020600085815260200190815260200160002060009054906101000a900460ff16155b1561043157600160008154809291906103c29061085b565b91905055506001600360008573ffffffffffffffffffffffffffffffffffffffff1673ffffffffffffffffffffffffffffffffffffffff168152602001908152602001600020600086815260200190815260200160002060006101000a81548160ff0219169083151502179055505b8080156104995750600460008473ffffffffffffffffffffffffffffffffffffffff1673ffffffffffffffffffffffffffffffffffffffff168152602001908152602001600020600085815260200190815260200160002060009054906101000a900460ff16155b1561052057600260008154809291906104b19061085b565b91905055506001600460008573ffffffffffffffffffffffffffffffffffffffff1673ffffffffffffffffffffffffffffffffffffffff168152602001908152602001600020600086815260200190815260200160002060006101000a81548160ff0219169083151502179055505b50505050565b60015481565b600080600154600254915091509091565b6000819050919050565b6105508161053d565b82525050565b600060208201905061056b6000830184610547565b92915050565b600080fd5b600073ffffffffffffffffffffffffffffffffffffffff82169050919050565b60006105a182610576565b9050919050565b6105b181610596565b81146105bc57600080fd5b50565b6000813590506105ce816105a8565b92915050565b6105dd8161053d565b81146105e857600080fd5b50565b6000813590506105fa816105d4565b92915050565b6000806040838503121561061757610616610571565b5b6000610625858286016105bf565b9250506020610636858286016105eb565b9150509250929050565b60008115159050919050565b61065581610640565b82525050565b6000602082019050610670600083018461064c565b92915050565b6000819050919050565b600061069b61069661069184610576565b610676565b610576565b9050919050565b60006106ad82610680565b9050919050565b60006106bf826106a2565b9050919050565b6106cf816106b4565b82525050565b60006020820190506106ea60008301846106c6565b92915050565b60006020828403121561070657610705610571565b5b6000610714848285016105eb565b91505092915050565b60006040820190506107326000830185610547565b61073f6020830184610547565b9392505050565b61074f81610596565b82525050565b600060408201905061076a6000830185610746565b6107776020830184610547565b9392505050565b60008151905061078d816105a8565b92915050565b6000602082840312156107a9576107a8610571565b5b60006107b78482850161077e565b91505092915050565b6107c981610640565b81146107d457600080fd5b50565b6000815190506107e6816107c0565b92915050565b6000806040838503121561080357610802610571565b5b6000610811858286016107d7565b9250506020610822858286016107d7565b9150509250929050565b7f4e487b7100000000000000000000000000000000000000000000000000000000600052601160045260246000fd5b60006108668261053d565b91507fffffffffffffffffffffffffffffffffffffffffffffffffffffffffffffffff82036108985761089761082c565b5b60018201905091905056fea264697066735822122017a98ea9446e9fc62b09da54f0c6e64395633797ba44fe22fd285f9c2169edda64736f6c63430008130033",
  "linkReferences": {},
  "deployedLinkReferences": {}
}