{
  "_format": "hh-sol-artifact-1",
  "contractName": "EduchainQuizTracker",
  "sourceName": "contracts/EduchainQuizTracker.sol",
  "abi": [
    {
      "inputs": [
        {
          "internalType": "address",
          "name": "_quizContractAddress",
          "type": "address"
        }
      ],
      "stateMutability": "nonpayable",
      "type": "constructor"
    },
    {
      "inputs": [],
      "name": "getStats",
      "outputs": [
        {
          "internalType": "uint256",
          "name": "",
          "type": "uint256"
        },
        {
          "internalType": "uint256",
          "name": "",
          "type": "uint256"
        }
      ],
      "stateMutability": "view",
      "type": "function"
    },
    {
      "inputs": [
        {
          "internalType": "address",
          "name": "",
          "type": "address"
        }
      ],
      "name": "hasCountedLike",
      "outputs": [
        {
          "internalType": "bool",
          "name": "",
          "type": "bool"
        }
      ],
      "stateMutability": "view",
      "type": "function"
    },
    {
      "inputs": [
        {
          "internalType": "address",
          "name": "",
          "type": "address"
        }
      ],
      "name": "hasCountedView",
      "outputs": [
        {
          "internalType": "bool",
          "name": "",
          "type": "bool"
        }
      ],
      "stateMutability": "view",
      "type": "function"
    },
    {
      "inputs": [],
      "name": "quizContract",
      "outputs": [
        {
          "internalType": "contract EduchainQuiz",
          "name": "",
          "type": "address"
        }
      ],
      "stateMutability": "view",
      "type": "function"
    },
    {
      "inputs": [],
      "name": "totalLikes",
      "outputs": [
        {
          "internalType": "uint256",
          "name": "",
          "type": "uint256"
        }
      ],
      "stateMutability": "view",
      "type": "function"
    },
    {
      "inputs": [],
      "name": "totalViews",
      "outputs": [
        {
          "internalType": "uint256",
          "name": "",
          "type": "uint256"
        }
      ],
      "stateMutability": "view",
      "type": "function"
    },
    {
      "inputs": [],
      "name": "updateStats",
      "outputs": [],
      "stateMutability": "nonpayable",
      "type": "function"
    }
  ],
  "bytecode": "0x608060405234801561001057600080fd5b5060405161085c38038061085c833981810160405281019061003291906100db565b806000806101000a81548173ffffffffffffffffffffffffffffffffffffffff021916908373ffffffffffffffffffffffffffffffffffffffff16021790555050610108565b600080fd5b600073ffffffffffffffffffffffffffffffffffffffff82169050919050565b60006100a88261007d565b9050919050565b6100b88161009d565b81146100c357600080fd5b50565b6000815190506100d5816100af565b92915050565b6000602082840312156100f1576100f0610078565b5b60006100ff848285016100c6565b91505092915050565b610745806101176000396000f3fe608060405234801561001057600080fd5b506004361061007d5760003560e01c8063988cd3bc1161005b578063988cd3bc146100c8578063a3a6874b146100f8578063aead592e14610128578063c59d4847146101465761007d565b80630f90d9001461008257806359e8bf48146100a057806383850f43146100aa575b600080fd5b61008a610165565b604051610097919061043f565b60405180910390f35b6100a861016b565b005b6100b26103ab565b6040516100bf91906104d9565b60405180910390f35b6100e260048036038101906100dd9190610537565b6103cf565b6040516100ef919061057f565b60405180910390f35b610112600480360381019061010d9190610537565b6103ef565b60405161011f919061057f565b60405180910390f35b61013061040f565b60405161013d919061043f565b60405180910390f35b61014e610415565b60405161015c92919061059a565b60405180910390f35b60025481565b60008060008054906101000a900473ffffffffffffffffffffffffffffffffffffffff1673ffffffffffffffffffffffffffffffffffffffff16636386c1c7336040518263ffffffff1660e01b81526004016101c791906105d2565b606060405180830381865afa1580156101e4573d6000803e3d6000fd5b505050506040513d601f19601f820116820180604052508101906102089190610645565b92509250508180156102645750600360003373ffffffffffffffffffffffffffffffffffffffff1673ffffffffffffffffffffffffffffffffffffffff16815260200190815260200160002060009054906101000a900460ff16155b156102da576001600081548092919061027c906106c7565b91905055506001600360003373ffffffffffffffffffffffffffffffffffffffff1673ffffffffffffffffffffffffffffffffffffffff16815260200190815260200160002060006101000a81548160ff0219169083151502179055505b8080156103315750600460003373ffffffffffffffffffffffffffffffffffffffff1673ffffffffffffffffffffffffffffffffffffffff16815260200190815260200160002060009054906101000a900460ff16155b156103a75760026000815480929190610349906106c7565b91905055506001600460003373ffffffffffffffffffffffffffffffffffffffff1673ffffffffffffffffffffffffffffffffffffffff16815260200190815260200160002060006101000a81548160ff0219169083151502179055505b5050565b60008054906101000a900473ffffffffffffffffffffffffffffffffffffffff1681565b60046020528060005260406000206000915054906101000a900460ff1681565b60036020528060005260406000206000915054906101000a900460ff1681565b60015481565b600080600154600254915091509091565b6000819050919050565b61043981610426565b82525050565b60006020820190506104546000830184610430565b92915050565b600073ffffffffffffffffffffffffffffffffffffffff82169050919050565b6000819050919050565b600061049f61049a6104958461045a565b61047a565b61045a565b9050919050565b60006104b182610484565b9050919050565b60006104c3826104a6565b9050919050565b6104d3816104b8565b82525050565b60006020820190506104ee60008301846104ca565b92915050565b600080fd5b60006105048261045a565b9050919050565b610514816104f9565b811461051f57600080fd5b50565b6000813590506105318161050b565b92915050565b60006020828403121561054d5761054c6104f4565b5b600061055b84828501610522565b91505092915050565b60008115159050919050565b61057981610564565b82525050565b60006020820190506105946000830184610570565b92915050565b60006040820190506105af6000830185610430565b6105bc6020830184610430565b9392505050565b6105cc816104f9565b82525050565b60006020820190506105e760008301846105c3565b92915050565b6105f681610426565b811461060157600080fd5b50565b600081519050610613816105ed565b92915050565b61062281610564565b811461062d57600080fd5b50565b60008151905061063f81610619565b92915050565b60008060006060848603121561065e5761065d6104f4565b5b600061066c86828701610604565b935050602061067d86828701610630565b925050604061068e86828701610630565b9150509250925092565b7f4e487b7100000000000000000000000000000000000000000000000000000000600052601160045260246000fd5b60006106d282610426565b91507fffffffffffffffffffffffffffffffffffffffffffffffffffffffffffffffff820361070457610703610698565b5b60018201905091905056fea264697066735822122012414769957db0fd96247b09e0d86e566a720fcbd205f2c86d2344cc911bf35864736f6c63430008130033",
  "linkReferences": {},
  "deployedLinkReferences": {}
}