{
  "_format": "hh-sol-artifact-1",
  "contractName": "ProtocolProvider",
  "sourceName": "contracts/ProtocolProvider.sol",
  "abi": [
    {
      "inputs": [
        {
          "internalType": "address",
          "name": "_eduContract",
          "type": "address"
        }
      ],
      "stateMutability": "nonpayable",
      "type": "constructor"
    },
    {
      "anonymous": false,
      "inputs": [
        {
          "indexed": true,
          "internalType": "address",
          "name": "user",
          "type": "address"
        },
        {
          "indexed": false,
          "internalType": "uint256",
          "name": "amount",
          "type": "uint256"
        }
      ],
      "name": "EduSupplied",
      "type": "event"
    },
    {
      "anonymous": false,
      "inputs": [
        {
          "indexed": true,
          "internalType": "address",
          "name": "user",
          "type": "address"
        },
        {
          "indexed": false,
          "internalType": "uint256",
          "name": "createdQuests",
          "type": "uint256"
        }
      ],
      "name": "QuestCreated",
      "type": "event"
    },
    {
      "anonymous": false,
      "inputs": [
        {
          "indexed": true,
          "internalType": "address",
          "name": "user",
          "type": "address"
        },
        {
          "indexed": false,
          "internalType": "uint256",
          "name": "solvedQuests",
          "type": "uint256"
        }
      ],
      "name": "QuestSolved",
      "type": "event"
    },
    {
      "inputs": [
        {
          "internalType": "address",
          "name": "_user",
          "type": "address"
        }
      ],
      "name": "createQuest",
      "outputs": [],
      "stateMutability": "nonpayable",
      "type": "function"
    },
    {
      "inputs": [],
      "name": "eduContract",
      "outputs": [
        {
          "internalType": "address",
          "name": "",
          "type": "address"
        }
      ],
      "stateMutability": "view",
      "type": "function"
    },
    {
      "inputs": [
        {
          "internalType": "address",
          "name": "_user",
          "type": "address"
        }
      ],
      "name": "getBalance",
      "outputs": [
        {
          "internalType": "uint256",
          "name": "",
          "type": "uint256"
        }
      ],
      "stateMutability": "view",
      "type": "function"
    },
    {
      "inputs": [
        {
          "internalType": "address",
          "name": "_user",
          "type": "address"
        }
      ],
      "name": "getCreatedQuests",
      "outputs": [
        {
          "internalType": "uint256",
          "name": "",
          "type": "uint256"
        }
      ],
      "stateMutability": "view",
      "type": "function"
    },
    {
      "inputs": [
        {
          "internalType": "address",
          "name": "_user",
          "type": "address"
        }
      ],
      "name": "getSolvedQuests",
      "outputs": [
        {
          "internalType": "uint256",
          "name": "",
          "type": "uint256"
        }
      ],
      "stateMutability": "view",
      "type": "function"
    },
    {
      "inputs": [
        {
          "internalType": "address",
          "name": "_user",
          "type": "address"
        }
      ],
      "name": "solveQuest",
      "outputs": [],
      "stateMutability": "nonpayable",
      "type": "function"
    },
    {
      "inputs": [
        {
          "internalType": "address",
          "name": "_user",
          "type": "address"
        },
        {
          "internalType": "uint256",
          "name": "_amount",
          "type": "uint256"
        }
      ],
      "name": "supplyEdu",
      "outputs": [],
      "stateMutability": "nonpayable",
      "type": "function"
    },
    {
      "inputs": [
        {
          "internalType": "address",
          "name": "",
          "type": "address"
        }
      ],
      "name": "userStatuses",
      "outputs": [
        {
          "internalType": "uint256",
          "name": "createdQuests",
          "type": "uint256"
        },
        {
          "internalType": "uint256",
          "name": "solvedQuests",
          "type": "uint256"
        },
        {
          "internalType": "uint256",
          "name": "balance",
          "type": "uint256"
        }
      ],
      "stateMutability": "view",
      "type": "function"
    }
  ],
  "bytecode": "0x608060405234801561001057600080fd5b50604051610d09380380610d09833981810160405281019061003291906100dc565b80600160006101000a81548173ffffffffffffffffffffffffffffffffffffffff021916908373ffffffffffffffffffffffffffffffffffffffff16021790555050610109565b600080fd5b600073ffffffffffffffffffffffffffffffffffffffff82169050919050565b60006100a98261007e565b9050919050565b6100b98161009e565b81146100c457600080fd5b50565b6000815190506100d6816100b0565b92915050565b6000602082840312156100f2576100f1610079565b5b6000610100848285016100c7565b91505092915050565b610bf1806101186000396000f3fe608060405234801561001057600080fd5b50600436106100885760003560e01c8063e35174a71161005b578063e35174a714610113578063e360788614610145578063f8a8622114610175578063f8b2cb4f1461019157610088565b80630beef6861461008d5780637b379fc5146100bd5780638da20904146100db578063b8951e7e146100f7575b600080fd5b6100a760048036038101906100a291906107b9565b6101c1565b6040516100b491906107ff565b60405180910390f35b6100c561020c565b6040516100d29190610829565b60405180910390f35b6100f560048036038101906100f091906107b9565b610232565b005b610111600480360381019061010c9190610870565b61031d565b005b61012d600480360381019061012891906107b9565b6105ab565b60405161013c939291906108b0565b60405180910390f35b61015f600480360381019061015a91906107b9565b6105d5565b60405161016c91906107ff565b60405180910390f35b61018f600480360381019061018a91906107b9565b610620565b005b6101ab60048036038101906101a691906107b9565b61070b565b6040516101b891906107ff565b60405180910390f35b60008060008373ffffffffffffffffffffffffffffffffffffffff1673ffffffffffffffffffffffffffffffffffffffff168152602001908152602001600020600001549050919050565b600160009054906101000a900473ffffffffffffffffffffffffffffffffffffffff1681565b60016000808373ffffffffffffffffffffffffffffffffffffffff1673ffffffffffffffffffffffffffffffffffffffff16815260200190815260200160002060000160008282546102849190610916565b925050819055508073ffffffffffffffffffffffffffffffffffffffff167f144426652b887072b6baa235215a4477206bc9b2ee6a43a1b4e3fe2d3dcc5f866000808473ffffffffffffffffffffffffffffffffffffffff1673ffffffffffffffffffffffffffffffffffffffff1681526020019081526020016000206000015460405161031291906107ff565b60405180910390a250565b60008111610360576040517f08c379a0000000000000000000000000000000000000000000000000000000008152600401610357906109cd565b60405180910390fd5b6000600160009054906101000a900473ffffffffffffffffffffffffffffffffffffffff169050818173ffffffffffffffffffffffffffffffffffffffff166370a08231306040518263ffffffff1660e01b81526004016103c19190610829565b602060405180830381865afa1580156103de573d6000803e3d6000fd5b505050506040513d601f19601f820116820180604052508101906104029190610a02565b1015610443576040517f08c379a000000000000000000000000000000000000000000000000000000000815260040161043a90610aa1565b60405180910390fd5b8073ffffffffffffffffffffffffffffffffffffffff1663a9059cbb84846040518363ffffffff1660e01b815260040161047e929190610ac1565b6020604051808303816000875af115801561049d573d6000803e3d6000fd5b505050506040513d601f19601f820116820180604052508101906104c19190610b22565b610500576040517f08c379a00000000000000000000000000000000000000000000000000000000081526004016104f790610b9b565b60405180910390fd5b816000808573ffffffffffffffffffffffffffffffffffffffff1673ffffffffffffffffffffffffffffffffffffffff16815260200190815260200160002060020160008282546105519190610916565b925050819055508273ffffffffffffffffffffffffffffffffffffffff167f5647171ad2c1bf5afc51876a4bae70ca8e03ef1d8ffb1c5ca00cb104cedf7bb98360405161059e91906107ff565b60405180910390a2505050565b60006020528060005260406000206000915090508060000154908060010154908060020154905083565b60008060008373ffffffffffffffffffffffffffffffffffffffff1673ffffffffffffffffffffffffffffffffffffffff168152602001908152602001600020600101549050919050565b60016000808373ffffffffffffffffffffffffffffffffffffffff1673ffffffffffffffffffffffffffffffffffffffff16815260200190815260200160002060010160008282546106729190610916565b925050819055508073ffffffffffffffffffffffffffffffffffffffff167f4ca721307ace72ea5490b5ccac3e085f6ae7d92ec849a08e650bbcb3c6a3fa2c6000808473ffffffffffffffffffffffffffffffffffffffff1673ffffffffffffffffffffffffffffffffffffffff1681526020019081526020016000206001015460405161070091906107ff565b60405180910390a250565b60008060008373ffffffffffffffffffffffffffffffffffffffff1673ffffffffffffffffffffffffffffffffffffffff168152602001908152602001600020600201549050919050565b600080fd5b600073ffffffffffffffffffffffffffffffffffffffff82169050919050565b60006107868261075b565b9050919050565b6107968161077b565b81146107a157600080fd5b50565b6000813590506107b38161078d565b92915050565b6000602082840312156107cf576107ce610756565b5b60006107dd848285016107a4565b91505092915050565b6000819050919050565b6107f9816107e6565b82525050565b600060208201905061081460008301846107f0565b92915050565b6108238161077b565b82525050565b600060208201905061083e600083018461081a565b92915050565b61084d816107e6565b811461085857600080fd5b50565b60008135905061086a81610844565b92915050565b6000806040838503121561088757610886610756565b5b6000610895858286016107a4565b92505060206108a68582860161085b565b9150509250929050565b60006060820190506108c560008301866107f0565b6108d260208301856107f0565b6108df60408301846107f0565b949350505050565b7f4e487b7100000000000000000000000000000000000000000000000000000000600052601160045260246000fd5b6000610921826107e6565b915061092c836107e6565b9250828201905080821115610944576109436108e7565b5b92915050565b600082825260208201905092915050565b7f537570706c7920616d6f756e74206d757374206265206772656174657220746860008201527f616e203000000000000000000000000000000000000000000000000000000000602082015250565b60006109b760248361094a565b91506109c28261095b565b604082019050919050565b600060208201905081810360008301526109e6816109aa565b9050919050565b6000815190506109fc81610844565b92915050565b600060208284031215610a1857610a17610756565b5b6000610a26848285016109ed565b91505092915050565b7f496e73756666696369656e742045647520746f6b656e7320696e20636f6e747260008201527f6163740000000000000000000000000000000000000000000000000000000000602082015250565b6000610a8b60238361094a565b9150610a9682610a2f565b604082019050919050565b60006020820190508181036000830152610aba81610a7e565b9050919050565b6000604082019050610ad6600083018561081a565b610ae360208301846107f0565b9392505050565b60008115159050919050565b610aff81610aea565b8114610b0a57600080fd5b50565b600081519050610b1c81610af6565b92915050565b600060208284031215610b3857610b37610756565b5b6000610b4684828501610b0d565b91505092915050565b7f45647520746f6b656e207472616e73666572206661696c656400000000000000600082015250565b6000610b8560198361094a565b9150610b9082610b4f565b602082019050919050565b60006020820190508181036000830152610bb481610b78565b905091905056fea2646970667358221220451ab64c513b161d1d4fa2910e93df95ae8d4cc67e0d098034b4533da3792a0d64736f6c63430008130033",
  "linkReferences": {},
  "deployedLinkReferences": {}
}